{
  "_format": "hh-sol-artifact-1",
  "contractName": "CodeHashGetter",
  "sourceName": "contracts/CodeHashGetter.sol",
  "abi": [
    {
      "inputs": [
        {
          "internalType": "address[]",
          "name": "addresses",
          "type": "address[]"
        }
      ],
      "stateMutability": "nonpayable",
      "type": "constructor"
    },
    {
      "inputs": [
        {
          "internalType": "bytes32",
          "name": "hash",
          "type": "bytes32"
        }
      ],
      "name": "CodeHashesResult",
      "type": "error"
    },
    {
      "inputs": [
        {
          "internalType": "address[]",
          "name": "addresses",
          "type": "address[]"
        }
      ],
      "name": "getCodeHashes",
      "outputs": [
        {
          "internalType": "bytes32",
          "name": "",
          "type": "bytes32"
        }
      ],
      "stateMutability": "view",
      "type": "function"
    }
  ],
  "bytecode": "0x608060405234801561001057600080fd5b5060405161027f38038061027f83398101604081905261002f91610160565b6100388161005d565b60405163091cd00560e01b815260040161005491815260200190565b60405180910390fd5b60008082516001600160401b038111156100795761007961012e565b6040519080825280602002602001820160405280156100a2578160200160208202803683370190505b50905060005b83518110156100fa578381815181106100c3576100c3610224565b60200260200101516001600160a01b03163f8282815181106100e7576100e7610224565b60209081029190910101526001016100a8565b5060008160405160200161010e919061023a565b60408051601f198184030181529190528051602090910120949350505050565b634e487b7160e01b600052604160045260246000fd5b80516001600160a01b038116811461015b57600080fd5b919050565b6000602080838503121561017357600080fd5b82516001600160401b038082111561018a57600080fd5b818501915085601f83011261019e57600080fd5b8151818111156101b0576101b061012e565b8060051b604051601f19603f830116810181811085821117156101d5576101d561012e565b6040529182528482019250838101850191888311156101f357600080fd5b938501935b828510156102185761020985610144565b845293850193928501926101f8565b98975050505050505050565b634e487b7160e01b600052603260045260246000fd5b6020808252825182820181905260009190848201906040850190845b8181101561027257835183529284019291840191600101610256565b5090969550505050505056fe",
  "deployedBytecode": "0x608060405234801561001057600080fd5b506004361061002b5760003560e01c80637b34b62114610030575b600080fd5b61004361003e366004610159565b610055565b60405190815260200160405180910390f35b600080825167ffffffffffffffff81111561007257610072610127565b60405190808252806020026020018201604052801561009b578160200160208202803683370190505b50905060005b83518110156100f3578381815181106100bc576100bc61021e565b60200260200101516001600160a01b03163f8282815181106100e0576100e061021e565b60209081029190910101526001016100a1565b506000816040516020016101079190610234565b60408051601f198184030181529190528051602090910120949350505050565b634e487b7160e01b600052604160045260246000fd5b80356001600160a01b038116811461015457600080fd5b919050565b6000602080838503121561016c57600080fd5b823567ffffffffffffffff8082111561018457600080fd5b818501915085601f83011261019857600080fd5b8135818111156101aa576101aa610127565b8060051b604051601f19603f830116810181811085821117156101cf576101cf610127565b6040529182528482019250838101850191888311156101ed57600080fd5b938501935b82851015610212576102038561013d565b845293850193928501926101f2565b98975050505050505050565b634e487b7160e01b600052603260045260246000fd5b6020808252825182820181905260009190848201906040850190845b8181101561026c57835183529284019291840191600101610250565b5090969550505050505056fea2646970667358221220acd89989d0f90b1bdfa14a48db408b4d26b1b070c78d043061287ed9e7a844da64736f6c63430008170033",
  "linkReferences": {},
  "deployedLinkReferences": {}
}