{
  "_format": "hh-sol-artifact-1",
  "contractName": "SmartAccountFactory",
  "sourceName": "@account-abstraction/contracts/Anansi/SmartAccountFactory.sol",
  "abi": [
    {
      "inputs": [
        {
          "internalType": "contract IEntryPoint",
          "name": "_entryPoint",
          "type": "address"
        }
      ],
      "stateMutability": "nonpayable",
      "type": "constructor"
    },
    {
      "inputs": [],
      "name": "InvalidAudience",
      "type": "error"
    },
    {
      "inputs": [],
      "name": "InvalidAuthToken",
      "type": "error"
    },
    {
      "inputs": [],
      "name": "InvalidKey",
      "type": "error"
    },
    {
      "inputs": [],
      "name": "InvalidOperation",
      "type": "error"
    },
    {
      "inputs": [],
      "name": "InvalidToken",
      "type": "error"
    },
    {
      "inputs": [],
      "name": "JsonParseFailed",
      "type": "error"
    },
    {
      "inputs": [
        {
          "internalType": "uint256",
          "name": "name",
          "type": "uint256"
        }
      ],
      "name": "NameExists",
      "type": "error"
    },
    {
      "inputs": [],
      "name": "accountImplementation",
      "outputs": [
        {
          "internalType": "contract SmartAccount",
          "name": "",
          "type": "address"
        }
      ],
      "stateMutability": "view",
      "type": "function"
    },
    {
      "inputs": [
        {
          "internalType": "uint256",
          "name": "_name",
          "type": "uint256"
        },
        {
          "internalType": "bytes",
          "name": "_header",
          "type": "bytes"
        },
        {
          "internalType": "bytes",
          "name": "_payload",
          "type": "bytes"
        },
        {
          "internalType": "bytes",
          "name": "_signature",
          "type": "bytes"
        },
        {
          "internalType": "bytes32",
          "name": "_digest",
          "type": "bytes32"
        }
      ],
      "name": "changeOwner",
      "outputs": [],
      "stateMutability": "nonpayable",
      "type": "function"
    },
    {
      "inputs": [
        {
          "internalType": "uint256",
          "name": "name",
          "type": "uint256"
        },
        {
          "internalType": "bytes",
          "name": "_token",
          "type": "bytes"
        }
      ],
      "name": "changeOwner",
      "outputs": [],
      "stateMutability": "nonpayable",
      "type": "function"
    },
    {
      "inputs": [
        {
          "internalType": "address",
          "name": "owner",
          "type": "address"
        },
        {
          "internalType": "uint256",
          "name": "name",
          "type": "uint256"
        }
      ],
      "name": "createAccount",
      "outputs": [
        {
          "internalType": "contract SmartAccount",
          "name": "ret",
          "type": "address"
        }
      ],
      "stateMutability": "nonpayable",
      "type": "function"
    },
    {
      "inputs": [
        {
          "internalType": "uint256",
          "name": "name",
          "type": "uint256"
        }
      ],
      "name": "getAddress",
      "outputs": [
        {
          "internalType": "address",
          "name": "",
          "type": "address"
        }
      ],
      "stateMutability": "view",
      "type": "function"
    },
    {
      "inputs": [
        {
          "internalType": "uint256",
          "name": "",
          "type": "uint256"
        }
      ],
      "name": "ownerOf",
      "outputs": [
        {
          "internalType": "address",
          "name": "",
          "type": "address"
        }
      ],
      "stateMutability": "view",
      "type": "function"
    }
  ],
  "bytecode": "0x60a06040523480156200001157600080fd5b5060405162004b0a38038062004b0a833981016040819052620000349162000092565b80604051620000439062000084565b6001600160a01b039091168152602001604051809103906000f08015801562000070573d6000803e3d6000fd5b506001600160a01b031660805250620000c4565b611c868062002e8483390190565b600060208284031215620000a557600080fd5b81516001600160a01b0381168114620000bd57600080fd5b9392505050565b608051612d97620000ed60003960008181608d015281816103d301526105120152612d976000f3fe60806040523480156200001157600080fd5b5060043610620000695760003560e01c80622fd48b146200006e57806311464fbe14620000875780635fbfb9cf14620000cb5780636352211e14620000e2578063b93f9b0a146200010e578063fe3963fd1462000125575b600080fd5b620000856200007f366004620021d8565b6200013a565b005b620000af7f000000000000000000000000000000000000000000000000000000000000000081565b6040516001600160a01b03909116815260200160405180910390f35b620000af620000dc3660046200227c565b620002fe565b620000af620000f3366004620022b6565b6000602081905290815260409020546001600160a01b031681565b620000af6200011f366004620022b6565b620004d9565b6200008562000136366004620022d0565b5050565b60006200014786620004d9565b90506200015685848462000557565b15620002dd5760006200016985620005be565b9050600062000178826200077e565b805180516020909101209091507fa1ac514459b3145d341d39cf16611635a8d5d5fc99c9eaa4f84a08c0d8f49b5a14620001c55760405163b12eb16f60e01b815260040160405180910390fd5b600081604051602401620001da91906200236f565b60408051601f198184030181529181526020820180516001600160e01b0316631aa3164760e01b1790525190915060009081906001600160a01b0387169062000225908590620023f5565b6000604051808303816000865af19150503d806000811462000264576040519150601f19603f3d011682016040523d82523d6000602084013e62000269565b606091505b50915091508115620002b95760148101516001600160a01b03811615620002b25760008c815260208190526040902080546001600160a01b0319166001600160a01b0383161790555b50620002d2565b604051631cc6a69960e11b815260040160405180910390fd5b5050505050620002f6565b60405163d20c9e6960e01b815260040160405180910390fd5b505050505050565b6000818152602081905260408120546001600160a01b0316816200032284620004d9565b90506001600160a01b038216158015906200034e5750816001600160a01b0316856001600160a01b0316145b156200035e579150620004d39050565b6001600160a01b03821615801590620003895750816001600160a01b0316856001600160a01b031614155b15620003b057604051634340318560e01b8152600481018590526024015b60405180910390fd5b6001600160a01b0381163b8015620003cd57509150620004d39050565b8460001b7f00000000000000000000000000000000000000000000000000000000000000006040516200040090620020e8565b6001600160a01b0390911681526040602082018190526000908201526060018190604051809103906000f590508015801562000440573d6000803e3d6000fd5b5060405163485cc95560e01b81526001600160a01b0388811660048301523060248301529195509085169063485cc95590604401600060405180830381600087803b1580156200048f57600080fd5b505af1158015620004a4573d6000803e3d6000fd5b505050600086815260208190526040902080546001600160a01b0319166001600160a01b038916179055505050505b92915050565b6000620004d38260001b60405180602001620004f590620020e8565b601f1982820381018352601f9091011660408190526200053b91907f00000000000000000000000000000000000000000000000000000000000000009060200162002413565b6040516020818303038152906040528051906020012062000c66565b6000806200056585620005be565b9050600062000574826200077e565b9050600062000587826060015162000c7c565b9050620005b38587604051806101200160405280610100815260200162002b6261010091398462000d37565b979650505050505050565b60608151600003620005de57505060408051600081526020810190915290565b60048251620005ee919062002462565b156200063d5760405162461bcd60e51b815260206004820152601c60248201527f696e76616c696420626173653634206465636f64657220696e707574000000006044820152606401620003a7565b60006040518060a0016040528060808152602001620029e26080913990506000600484516200066d91906200248f565b6200067a906003620024a6565b905060006200068b826020620024c0565b67ffffffffffffffff811115620006a657620006a66200212d565b6040519080825280601f01601f191660200182016040528015620006d1576020820181803683370190505b5090508451850151603d60ff8216036200070057600183039250613d3d61ffff82160362000700576001830392505b50818152600183018586518101602084015b818310156200077157600483019250825160ff8082168601511660ff808360081c168701511660061b0160ff808360101c1687015116600c1b60ff808460181c168801511660121b010190508060e81b82525060038101905062000712565b5092979650505050505050565b620007aa6040518060800160405280606081526020016060815260200160608152602001606081525090565b606080808060008080620007c089601e62000fb6565b92509250925082600014620007e8576040516302b6f7db60e11b815260040160405180910390fd5b600182600081518110620008005762000800620024ec565b6020026020010151600001516004811115620008205762000820620024d6565b146200083f5760405163c1ab6dc160e01b815260040160405180910390fd5b600160005b8282101562000c1a576003848381518110620008645762000864620024ec565b6020026020010151600001516004811115620008845762000884620024d6565b14620008a35760405163c1ab6dc160e01b815260040160405180910390fd5b6000620008fc858481518110620008be57620008be620024ec565b602002602001015160200151868581518110620008df57620008df620024ec565b6020026020010151606001518e620018679092919063ffffffff16565b90506200092e60405180604001604052806003815260200162185d5960ea1b815250826200193890919063ffffffff16565b600003620009f85760038562000946856001620024c0565b81518110620009595762000959620024ec565b6020026020010151600001516004811115620009795762000979620024d6565b14620009985760405163c1ab6dc160e01b815260040160405180910390fd5b620009ec85620009aa856001620024c0565b81518110620009bd57620009bd620024ec565b60200260200101516020015186856001620009d99190620024c0565b81518110620008df57620008df620024ec565b98506001915062000c04565b604080518082019091526005815264195b585a5b60da1b602082015262000a2190829062001938565b60000362000aa95760038562000a39856001620024c0565b8151811062000a4c5762000a4c620024ec565b602002602001015160000151600481111562000a6c5762000a6c620024d6565b1462000a8b5760405163c1ab6dc160e01b815260040160405180910390fd5b62000a9d85620009aa856001620024c0565b99506001915062000c04565b6040805180820190915260058152646e6f6e636560d81b602082015262000ad290829062001938565b60000362000b5a5760038562000aea856001620024c0565b8151811062000afd5762000afd620024ec565b602002602001015160000151600481111562000b1d5762000b1d620024d6565b1462000b3c5760405163c1ab6dc160e01b815260040160405180910390fd5b62000b4e85620009aa856001620024c0565b97506001915062000c04565b6040805180820190915260038152621ada5960ea1b602082015262000b8190829062001938565b60000362000c045760038562000b99856001620024c0565b8151811062000bac5762000bac620024ec565b602002602001015160000151600481111562000bcc5762000bcc620024d6565b1462000beb5760405163c1ab6dc160e01b815260040160405180910390fd5b62000bfd85620009aa856001620024c0565b9650600191505b62000c11600284620024c0565b92505062000844565b801562000c4d57505060408051608081018252968752602087019790975250505092820152606081019190915292915050565b60405163c1ab6dc160e01b815260040160405180910390fd5b600062000c7583833062001a5e565b9392505050565b805160208201206060907fb69ec74eb03c91185aa35bc6a881015ab9a5d56d5721b3c98738f751d0165bea810162000cd257604051806101200160405280610100815260200162002a6261010091399392505050565b7fcaf43c8c3d983b13d7f63046f554b548e25175f7d41cb526ec6fd7caa16adb93810162000d1e57604051806101200160405280610100815260200162002c6261010091399392505050565b604051630eda9c3d60e31b815260040160405180910390fd5b8051600090604081101562000d5157600091505062000fae565b8451811462000d6557600091505062000fae565b835160405160009162000d869184919082908a908a908a9060200162002502565b60408051601f19818403018152919052805190915060008367ffffffffffffffff81111562000db95762000db96200212d565b6040519080825280601f01601f19166020018201604052801562000de4576020820181803683370190505b509050836020820183602086016005600019fa62000e06576000805260206000f35b60008060316012878501035160001a0362000e2057601191505b8162000e3d57602f6010878501035160001a0362000e3d57600f91505b8162000e4d576000805260206000f35b6025828703039050600160f01b6001600160f01b0319602085015116031562000e7a576000805260206000f35b806022840101602284015b8181101562000eaf5760ff815160001a101562000ea6576000805260206000f35b60010162000e85565b50805160001a1562000ec5576000805260206000f35b506011820362000f1757602381840101516effffffffffffffffffffffffffffff19166f3031300d06096086480165030402010560801b818118911462000f10576000805260206000f35b5062000f5b565b6023818401015170ffffffffffffffffffffffffffffffffff19166e302f300b060960864801650304020160881b818118911462000f59576000805260206000f35b505b602160f51b6001600160f01b031983836023870101015116031562000f84576000805260206000f35b8281018201602501518b8118908c1462000fa2576000805260206000f35b50600196505050505050505b949350505050565b6000606060008062000fe260405180606001604052806000815260200160008152602001600081525090565b62000fed8662001a88565b60208201519095509091506000908162001006620020f6565b8a5185511015620018505760008b8660000151815181106200102c576200102c620024ec565b01602001516001600160f81b0319169050607b60f81b8114806200105d5750605b60f81b6001600160f81b03198216145b156200116857836200106f8162002569565b9450506200107e868a62001b3a565b9097509150866200109f575060039850600096506200186095505050505050565b856040015160001914620010e85788866040015181518110620010c657620010c6620024ec565b602002602001015160a0018051809190620010e19062002585565b60ff169052505b607b60f81b6001600160f81b03198216146200110657600262001109565b60015b829060048111156200111f576200111f620024d6565b90816004811115620011355762001135620024d6565b9052508551602080840191909152600160408401819052908701516200115c9190620025a7565b60408701525062001839565b607d60f81b6001600160f81b031982161480620011925750605d60f81b6001600160f81b03198216145b15620013b2576000607d60f81b6001600160f81b0319831614620011b8576002620011bb565b60015b9050600060018860200151620011d29190620025a7565b94505b8a8581518110620011ea57620011ea620024ec565b60200260200101519350836040015180156200120857508360800151155b15620012c757816004811115620012235762001223620024d6565b84516004811115620012395762001239620024d6565b1462001257575060019a506000985062001860975050505050505050565b600019604089015287516200126e906001620024c0565b8b8681518110620012835762001283620024ec565b6020026020010151606001818152505060018b8681518110620012aa57620012aa620024ec565b6020908102919091010151901515608090910152506001620012dc565b84620012d381620025bd565b955050620011d5565b80620012fa575060019a506000985062001860975050505050505050565b84156200135c578a8581518110620013165762001316620024ec565b60200260200101519350836040015180156200133457508360800151155b156200134757604088018590526200135c565b846200135381620025bd565b955050620012fa565b84600003620013a9578a85815181106200137a576200137a620024ec565b60200260200101519350836040015180156200139857508360800151155b15620013a957600f85900b60408901525b50505062001839565b6001600160f81b03198116601160f91b036200145157620013d5868a8e62001c06565b94508415620013f257509297506000955062001860945050505050565b83620013fe8162002569565b9450508560400151600019146200144a5788866040015181518110620014285762001428620024ec565b602002602001015160a0018051809190620014439062002585565b60ff169052505b5062001839565b600160fd1b6001600160f81b0319821614806200147b5750601160f81b6001600160f81b03198216145b80620014945750600960f91b6001600160f81b03198216145b80620014ad5750600560fa1b6001600160f81b03198216145b15620014ba575062001839565b6001600160f81b03198116601d60f91b03620014e357600186602001516200115c9190620025a7565b6001600160f81b03198116600b60fa1b036200169d57856040015160001914158015620015495750600289876040015181518110620015265762001526620024ec565b6020026020010151600001516004811115620015465762001546620024d6565b14155b80156200158f57506001898760400151815181106200156c576200156c620024ec565b60200260200101516000015160048111156200158c576200158c620024d6565b14155b156200144a5760018660200151620015a89190620025a7565b92505b6002898481518110620015c257620015c2620024ec565b6020026020010151600001516004811115620015e257620015e2620024d6565b14806200162357506001898481518110620016015762001601620024ec565b6020026020010151600001516004811115620016215762001621620024d6565b145b1562001688578883815181106200163e576200163e620024ec565b6020026020010151604001518015620016755750888381518110620016675762001667620024ec565b602002602001015160800151155b156200168857604086018390526200144a565b826200169481620025bd565b935050620015ab565b600360fc1b6001600160f81b0319821610801590620016ca5750603960f81b6001600160f81b0319821611155b80620016e35750602d60f81b6001600160f81b03198216145b80620016fc5750603360f91b6001600160f81b03198216145b80620017155750601d60fa1b6001600160f81b03198216145b806200172e5750603760f91b6001600160f81b03198216145b15620017ee57856040015160001914620017e157888660400151815181106200175b576200175b620024ec565b60200260200101519150600160048111156200177b576200177b620024d6565b82516004811115620017915762001791620024d6565b1480620017c55750600382516004811115620017b157620017b1620024d6565b148015620017c5575060a082015160ff1615155b15620017e1575060019850600096506200186095505050505050565b620013d5868a8e62001ee6565b600160fd1b6001600160f81b03198216108015906200181b5750603f60f91b6001600160f81b0319821611155b1562001837575060019850600096506200186095505050505050565b505b845185620018478262002569565b90525062001006565b5050505060200151600094509150505b9250925092565b60606000620018778484620025a7565b67ffffffffffffffff8111156200189257620018926200212d565b6040519080825280601f01601f191660200182016040528015620018bd576020820181803683370190505b509050835b838110156200192f57858181518110620018e057620018e0620024ec565b01602001516001600160f81b03191682620018fc8784620025a7565b815181106200190f576200190f620024ec565b60200101906001600160f81b031916908160001a905350600101620018c2565b50949350505050565b6000808351905080835110156200194d575081515b60005b8181101562001a25578381815181106200196e576200196e620024ec565b602001015160f81c60f81b6001600160f81b031916858281518110620019985762001998620024ec565b01602001516001600160f81b0319161015620019bb5760001992505050620004d3565b838181518110620019d057620019d0620024ec565b602001015160f81c60f81b6001600160f81b031916858281518110620019fa57620019fa620024ec565b01602001516001600160f81b031916111562001a1c57600192505050620004d3565b60010162001950565b5082518451101562001a3d57600019915050620004d3565b82518451111562001a53576001915050620004d3565b6000915050620004d3565b6000604051836040820152846020820152828152600b8101905060ff815360559020949350505050565b62001aad60405180606001604052806000815260200160008152602001600081525090565b6060600060405180606001604052806000815260200160008152602001600019815250905060008467ffffffffffffffff81111562001af05762001af06200212d565b60405190808252806020026020018201604052801562001b2d57816020015b62001b19620020f6565b81526020019060019003908162001b0f5790505b5091959194509092505050565b600062001b46620020f6565b825184602001511062001b8b576000836001855162001b669190620025a7565b8151811062001b795762001b79620024ec565b60200260200101519150915062001bff565b6040805160c08101825260008082526020808301829052928201819052606082018190526080820181905260a082015290850151845182918691811062001bd65762001bd6620024ec565b602002602001018190525084602001805180919062001bf59062002569565b9052506001925090505b9250929050565b82516000908162001c16620020f6565b86518762001c248262002569565b9052505b84518751101562001ed85760008588600001518151811062001c4e5762001c4e620024ec565b01602001516001600160f81b0319169050601160f91b81900362001cbb5762001c78888862001b3a565b90935091508262001c9157505050845250600362000c75565b62001cad82600362001ca5876001620024c0565b8b5162002090565b600094505050505062000c75565b605c60f882901c14801562001cde57508551885162001cdc906001620024c0565b105b1562001ebf5787518862001cf28262002569565b90525087518651879190811062001d0d5762001d0d620024ec565b6020910101516001600160f81b031916601160f91b148062001d5a57508588600001518151811062001d435762001d43620024ec565b6020910101516001600160f81b031916602f60f81b145b8062001d9157508588600001518151811062001d7a5762001d7a620024ec565b6020910101516001600160f81b031916601760fa1b145b8062001dc857508588600001518151811062001db15762001db1620024ec565b6020910101516001600160f81b031916603360f91b145b8062001dff57508588600001518151811062001de85762001de8620024ec565b6020910101516001600160f81b031916603960f91b145b8062001e3657508588600001518151811062001e1f5762001e1f620024ec565b6020910101516001600160f81b031916603760f91b145b8062001e6d57508588600001518151811062001e565762001e56620024ec565b6020910101516001600160f81b031916603160f91b145b8062001ea457508588600001518151811062001e8d5762001e8d620024ec565b6020910101516001600160f81b031916601d60fa1b145b1562001eb1575062001ec1565b505050845250600162000c75565b505b86518762001ecf8262002569565b90525062001c28565b505084525060029392505050565b82516000908190818062001ef9620020f6565b86518951101562002020578689600001518151811062001f1d5762001f1d620024ec565b01602001516001600160f81b0319169250600160fd1b83148062001f4e5750600960f81b6001600160f81b03198416145b8062001f675750600560f91b6001600160f81b03198416145b8062001f805750600d60f81b6001600160f81b03198416145b8062001f995750600b60fa1b6001600160f81b03198416145b8062001fb25750607d60f81b6001600160f81b03198416145b8062001fcb5750605d60f81b6001600160f81b03198416145b1562001fdb576001945062002020565b602060f884901c108062001ff35750607f60f884901c115b1562002009575050508552506001905062000c75565b885189620020178262002569565b90525062001ef9565b8462002036575050508552506002905062000c75565b62002042898962001b3a565b9092509050816200205d575050508552506003905062000c75565b62002070816004868c6000015162002090565b8851896200207e82620025bd565b90525060009998505050505050505050565b83836004811115620020a657620020a6620024d6565b90816004811115620020bc57620020bc620024d6565b90525060208401919091526001604084018190526060840191909152608083015250600060a090910152565b61040a80620025d883390190565b6040805160c08101909152806000815260006020820181905260408201819052606082018190526080820181905260a09091015290565b634e487b7160e01b600052604160045260246000fd5b600082601f8301126200215557600080fd5b813567ffffffffffffffff808211156200217357620021736200212d565b604051601f8301601f19908116603f011681019082821181831017156200219e576200219e6200212d565b81604052838152866020858801011115620021b857600080fd5b836020870160208301376000602085830101528094505050505092915050565b600080600080600060a08688031215620021f157600080fd5b85359450602086013567ffffffffffffffff808211156200221157600080fd5b6200221f89838a0162002143565b955060408801359150808211156200223657600080fd5b6200224489838a0162002143565b945060608801359150808211156200225b57600080fd5b506200226a8882890162002143565b95989497509295608001359392505050565b600080604083850312156200229057600080fd5b82356001600160a01b0381168114620022a857600080fd5b946020939093013593505050565b600060208284031215620022c957600080fd5b5035919050565b60008060408385031215620022e457600080fd5b82359150602083013567ffffffffffffffff8111156200230357600080fd5b620023118582860162002143565b9150509250929050565b60005b83811015620023385781810151838201526020016200231e565b50506000910152565b600081518084526200235b8160208601602086016200231b565b601f01601f19169290920160200192915050565b6020815260008251608060208401526200238d60a084018262002341565b90506020840151601f1980858403016040860152620023ad838362002341565b92506040860151915080858403016060860152620023cc838362002341565b9250606086015191508085840301608086015250620023ec828262002341565b95945050505050565b60008251620024098184602087016200231b565b9190910192915050565b60008351620024278184602088016200231b565b60609390931b6bffffffffffffffffffffffff19169190920190815260140192915050565b634e487b7160e01b600052601260045260246000fd5b6000826200247457620024746200244c565b500690565b634e487b7160e01b600052601160045260246000fd5b600082620024a157620024a16200244c565b500490565b8082028115828204841417620004d357620004d362002479565b80820180821115620004d357620004d362002479565b634e487b7160e01b600052602160045260246000fd5b634e487b7160e01b600052603260045260246000fd5b86815285602082015284604082015260008451620025288160608501602089016200231b565b845190830190620025418160608401602089016200231b565b8451910190620025598160608401602088016200231b565b0160600198975050505050505050565b6000600182016200257e576200257e62002479565b5060010190565b600060ff821660ff81036200259e576200259e62002479565b60010192915050565b81810381811115620004d357620004d362002479565b600081620025cf57620025cf62002479565b50600019019056fe608060405260405161040a38038061040a83398101604081905261002291610268565b61002c8282610033565b5050610352565b61003c82610092565b6040516001600160a01b038316907fbc7cd75a20ee27fd9adebab32041f755214dbc6bffa90cc0225b39da2e5c2d3b90600090a280511561008657610081828261010e565b505050565b61008e610185565b5050565b806001600160a01b03163b6000036100cd57604051634c9c8ce360e01b81526001600160a01b03821660048201526024015b60405180910390fd5b7f360894a13ba1a3210667c828492db98dca3e2076cc3735a920a3ca505d382bbc80546001600160a01b0319166001600160a01b0392909216919091179055565b6060600080846001600160a01b03168460405161012b9190610336565b600060405180830381855af49150503d8060008114610166576040519150601f19603f3d011682016040523d82523d6000602084013e61016b565b606091505b50909250905061017c8583836101a6565b95945050505050565b34156101a45760405163b398979f60e01b815260040160405180910390fd5b565b6060826101bb576101b682610205565b6101fe565b81511580156101d257506001600160a01b0384163b155b156101fb57604051639996b31560e01b81526001600160a01b03851660048201526024016100c4565b50805b9392505050565b8051156102155780518082602001fd5b604051630a12f52160e11b815260040160405180910390fd5b634e487b7160e01b600052604160045260246000fd5b60005b8381101561025f578181015183820152602001610247565b50506000910152565b6000806040838503121561027b57600080fd5b82516001600160a01b038116811461029257600080fd5b60208401519092506001600160401b03808211156102af57600080fd5b818501915085601f8301126102c357600080fd5b8151818111156102d5576102d561022e565b604051601f8201601f19908116603f011681019083821181831017156102fd576102fd61022e565b8160405282815288602084870101111561031657600080fd5b610327836020830160208801610244565b80955050505050509250929050565b60008251610348818460208701610244565b9190910192915050565b60aa806103606000396000f3fe6080604052600a600c565b005b60186014601a565b6051565b565b6000604c7f360894a13ba1a3210667c828492db98dca3e2076cc3735a920a3ca505d382bbc546001600160a01b031690565b905090565b3660008037600080366000845af43d6000803e808015606f573d6000f35b3d6000fdfea26469706673582212201300cb2f57649ee2a05c0127ce8764bc9fd6440c18e70ebb9733a5149d6263ea64736f6c63430008170033000000000000000000000000000000000000000000000000000000000000000000000000000000000000003e0000003f3435363738393a3b3c3d00000000000000000102030405060708090a0b0c0d0e0f101112131415161718190000000000001a1b1c1d1e1f202122232425262728292a2b2c2d2e2f303132330000000000bddb59ddc7ee878e0995690946efb7c9d755a79f33c521f0b16896fe3a5a5e0a5e6e8d1a9fba98d8812cdc3ee40b5f3a0708b44fb2a6f6651c0dbc6877cf486ed66e410ba1c6581a5c1faa5fd1a890d2ddaa0ebdad469e6a55c6ac274a390fab38194d3469f73382b2c040bdf0ac9000a5deee9aecef21aa23fe37e2bad42da13b64598b033b1836867ff25e774860e245a52b6648715ce12196fd67a258181881f6964844679065539dc17f3c233be6cb78cc312486714883b2f0404830b3fb795bba008900afd31a0cf26a785ee7ec29fccaffea9b2e756d5f883514be1ca455ae24a85318504136ef0d862f2731c662efdc889e284582a40c4c315f3b547b00000000000000000000000000000000000000000000000000000000000000000000000000000000000000000000000000000000000000000000000000000000000000000000000000000000000000000000000000000000000000000000000000000000000000000000000000000000000000000000000000000000000000000000000000000000000000000000000000000000000000000000000000000000000000000000000000000000000000000000000000000000000000000000000000000000000000000000000000000000000000000000000000000000000000000000000000000000000000000000000000000000000000000000000000010001cb8f0de8907e00aab5f91bf84a4c0100353e869e335c753e35c094c310fe692f6faf81284fdaab8e827e62691a129abd066bb5c976592bf87ff504b7c44b0ef1173f592bc840226d21a0d0cfc8719389548d4423301e197fdbdd4e67fc29d92d23db426026ee49b2c2e937a08c333d91b97d08db379bdc1255e3bfe495c9402d09afe3a3ec6cfdb2d5e6d02a377fb442c6b0f4f242de957680825adde537868d93325620b8730d603da8f40a3ea49c39fc525cd1fd6b81a73b3f89eb3906b6f35feca1b7459f9e15e976988634c6e92900f4e0c98f74c098abc10d17bab9fce93b74fb158f5bc703abc51a77fba84dec983d79eeccec9f39f435e5c86d1327b9a26469706673582212201a953cfdb0d7ac197a6426e518da3a278b0707863c4d3a702c6eae28d227e67b64736f6c6343000817003360c0604052306080523480156200001557600080fd5b5060405162001c8638038062001c8683398101604081905262000038916200010a565b6001600160a01b03811660a0526200004f62000056565b506200013c565b7ff0c57e16840df040f15088dc2f81fe391c3923bec73e23a9662efc9c229c6a00805468010000000000000000900460ff1615620000a75760405163f92ee8a960e01b815260040160405180910390fd5b80546001600160401b0390811614620001075780546001600160401b0319166001600160401b0390811782556040519081527fc7f505b2f371ae2175ee4913f4499e1f2633a7b5936321eed1cdaeb6115181d29060200160405180910390a15b50565b6000602082840312156200011d57600080fd5b81516001600160a01b03811681146200013557600080fd5b9392505050565b60805160a051611ae5620001a16000396000818161032401528181610832015281816108ba015281816109e401528181610a7c01528181610ab601528181610c240152610d4b015260008181610df201528181610e1b0152610f610152611ae56000f3fe6080604052600436106101235760003560e01c8063820e93f5116100a0578063bc197c8111610064578063bc197c8114610368578063c399ec8814610397578063c45a0155146103ac578063d087d288146103cc578063f23a6e61146103e157600080fd5b8063820e93f5146102a15780638da5cb5b146102b7578063ad3cb1cc146102d7578063b0d691fe14610315578063b61d27f61461034857600080fd5b8063485cc955116100e7578063485cc955146102315780634a58db19146102515780634d44560d146102595780634f1ef2861461027957806352d1902d1461028c57600080fd5b806301ffc9a71461012f578063150b7a021461016457806319822f7c146101a95780631aa31647146101d757806347e1da2a1461020f57600080fd5b3661012a57005b600080fd5b34801561013b57600080fd5b5061014f61014a366004611373565b61040e565b60405190151581526020015b60405180910390f35b34801561017057600080fd5b5061019061017f3660046113fa565b630a85bd0160e11b95945050505050565b6040516001600160e01b0319909116815260200161015b565b3480156101b557600080fd5b506101c96101c436600461146c565b610460565b60405190815260200161015b565b3480156101e357600080fd5b506101f76101f2366004611589565b610486565b6040516001600160a01b03909116815260200161015b565b34801561021b57600080fd5b5061022f61022a3660046116a5565b61059e565b005b34801561023d57600080fd5b5061022f61024c36600461173e565b610721565b61022f610830565b34801561026557600080fd5b5061022f610274366004611777565b6108b0565b61022f6102873660046117a3565b610939565b34801561029857600080fd5b506101c9610958565b3480156102ad57600080fd5b506101c960015481565b3480156102c357600080fd5b506000546101f7906001600160a01b031681565b3480156102e357600080fd5b50610308604051806040016040528060058152602001640352e302e360dc1b81525081565b60405161015b9190611816565b34801561032157600080fd5b507f00000000000000000000000000000000000000000000000000000000000000006101f7565b34801561035457600080fd5b5061022f610363366004611849565b610975565b34801561037457600080fd5b506101906103833660046118a4565b63bc197c8160e01b98975050505050505050565b3480156103a357600080fd5b506101c96109c4565b3480156103b857600080fd5b506002546101f7906001600160a01b031681565b3480156103d857600080fd5b506101c9610a55565b3480156103ed57600080fd5b506101906103fc366004611962565b63f23a6e6160e01b9695505050505050565b60006001600160e01b03198216630a85bd0160e11b148061043f57506001600160e01b03198216630271189760e51b145b8061045a57506001600160e01b031982166301ffc9a760e01b145b92915050565b600061046a610aab565b6104748484610b25565b905061047f82610bcc565b9392505050565b6002546000906001600160a01b031633146104b457604051631bb1b9eb60e31b815260040160405180910390fd5b604082015160015460148201516000546001600160a01b038083169116036105275760208086015180519101206001819055600080546040516001600160a01b03909116917f0f9ed33d6b47b06ac77ffbd124ae4820d7d2a0e285ac5666a181f5aca6a5751591a3506000949350505050565b846020015180519060200120820361059657600080546001600160a01b0319166001600160a01b038316908117825560015460405190927f0aa5c4053b511b550665f3b190a5584fdea2285bfd74b5d03deff5e5d7e70c6c91a350506000546001600160a01b03169392505050565b505050919050565b6105a6610c19565b84811480156105bc57508215806105bc57508281145b6106035760405162461bcd60e51b815260206004820152601360248201527277726f6e67206172726179206c656e6774687360681b60448201526064015b60405180910390fd5b60008390036106af5760005b858110156106a9576106a187878381811061062c5761062c6119cb565b905060200201602081019061064191906119e1565b6000858585818110610655576106556119cb565b905060200281019061066791906119fe565b8080601f016020809104026020016040519081016040528093929190818152602001838380828437600092019190915250610ca692505050565b60010161060f565b50610719565b60005b858110156107175761070f8787838181106106cf576106cf6119cb565b90506020020160208101906106e491906119e1565b8686848181106106f6576106f66119cb565b90506020020135858585818110610655576106556119cb565b6001016106b2565b505b505050505050565b7ff0c57e16840df040f15088dc2f81fe391c3923bec73e23a9662efc9c229c6a008054600160401b810460ff1615906001600160401b03166000811580156107665750825b90506000826001600160401b031660011480156107825750303b155b905081158015610790575080155b156107ae5760405163f92ee8a960e01b815260040160405180910390fd5b845467ffffffffffffffff1916600117855583156107d857845460ff60401b1916600160401b1785555b6107e28787610d16565b831561071757845460ff60401b19168555604051600181527fc7f505b2f371ae2175ee4913f4499e1f2633a7b5936321eed1cdaeb6115181d29060200160405180910390a150505050505050565b7f000000000000000000000000000000000000000000000000000000000000000060405163b760faf960e01b81523060048201526001600160a01b03919091169063b760faf99034906024016000604051808303818588803b15801561089557600080fd5b505af11580156108a9573d6000803e3d6000fd5b5050505050565b6108b8610d96565b7f000000000000000000000000000000000000000000000000000000000000000060405163040b850f60e31b81526001600160a01b03848116600483015260248201849052919091169063205c287890604401600060405180830381600087803b15801561092557600080fd5b505af1158015610719573d6000803e3d6000fd5b610941610de7565b61094a82610e8c565b6109548282610e94565b5050565b6000610962610f56565b50600080516020611a9083398151915290565b61097d610c19565b6109be848484848080601f016020809104026020016040519081016040528093929190818152602001838380828437600092019190915250610ca692505050565b50505050565b6040516370a0823160e01b81523060048201526000906001600160a01b037f000000000000000000000000000000000000000000000000000000000000000016906370a08231906024015b602060405180830381865afa158015610a2c573d6000803e3d6000fd5b505050506040513d601f19601f82011682018060405250810190610a509190611a44565b905090565b604051631aab3f0d60e11b8152306004820152600060248201819052906001600160a01b037f000000000000000000000000000000000000000000000000000000000000000016906335567e1a90604401610a0f565b336001600160a01b037f00000000000000000000000000000000000000000000000000000000000000001614610b235760405162461bcd60e51b815260206004820152601c60248201527f6163636f756e743a206e6f742066726f6d20456e747279506f696e740000000060448201526064016105fa565b565b7f19457468657265756d205369676e6564204d6573736167653a0a3332000000006000908152601c829052603c8120610ba081610b666101008701876119fe565b8080601f016020809104026020016040519081016040528093929190818152602001838380828437600092019190915250610f9f92505050565b6000546001600160a01b03908116911614610bbf57600191505061045a565b5060009392505050565b50565b8015610bc957604051600090339060001990849084818181858888f193505050503d80600081146108a9576040519150601f19603f3d011682016040523d82523d6000602084013e6108a9565b336001600160a01b037f0000000000000000000000000000000000000000000000000000000000000000161480610c5a57506000546001600160a01b031633145b610b235760405162461bcd60e51b815260206004820181905260248201527f6163636f756e743a206e6f74204f776e6572206f7220456e747279506f696e7460448201526064016105fa565b600080846001600160a01b03168484604051610cc29190611a5d565b60006040518083038185875af1925050503d8060008114610cff576040519150601f19603f3d011682016040523d82523d6000602084013e610d04565b606091505b5091509150816108a957805160208201fd5b600080546001600160a01b038085166001600160a01b03199283168117845560028054868416941684179055604051929390927f0000000000000000000000000000000000000000000000000000000000000000909216917f7c910af0d5fd8019f1307793565067cd8c9667c05e01ad7cb1a38abfc4a4c45d9190a45050565b6000546001600160a01b0316331480610dae57503330145b610b235760405162461bcd60e51b815260206004820152600a60248201526937b7363c9037bbb732b960b11b60448201526064016105fa565b306001600160a01b037f0000000000000000000000000000000000000000000000000000000000000000161480610e6e57507f00000000000000000000000000000000000000000000000000000000000000006001600160a01b0316610e62600080516020611a90833981519152546001600160a01b031690565b6001600160a01b031614155b15610b235760405163703e46dd60e11b815260040160405180910390fd5b610bc9610d96565b816001600160a01b03166352d1902d6040518163ffffffff1660e01b8152600401602060405180830381865afa925050508015610eee575060408051601f3d908101601f19168201909252610eeb91810190611a44565b60015b610f1657604051634c9c8ce360e01b81526001600160a01b03831660048201526024016105fa565b600080516020611a908339815191528114610f4757604051632a87526960e21b8152600481018290526024016105fa565b610f518383610fc9565b505050565b306001600160a01b037f00000000000000000000000000000000000000000000000000000000000000001614610b235760405163703e46dd60e11b815260040160405180910390fd5b600080600080610faf868661101f565b925092509250610fbf828261106c565b5090949350505050565b610fd282611125565b6040516001600160a01b038316907fbc7cd75a20ee27fd9adebab32041f755214dbc6bffa90cc0225b39da2e5c2d3b90600090a280511561101757610f51828261118a565b610954611200565b600080600083516041036110595760208401516040850151606086015160001a61104b8882858561121f565b955095509550505050611065565b50508151600091506002905b9250925092565b600082600381111561108057611080611a79565b03611089575050565b600182600381111561109d5761109d611a79565b036110bb5760405163f645eedf60e01b815260040160405180910390fd5b60028260038111156110cf576110cf611a79565b036110f05760405163fce698f760e01b8152600481018290526024016105fa565b600382600381111561110457611104611a79565b03610954576040516335e2f38360e21b8152600481018290526024016105fa565b806001600160a01b03163b60000361115b57604051634c9c8ce360e01b81526001600160a01b03821660048201526024016105fa565b600080516020611a9083398151915280546001600160a01b0319166001600160a01b0392909216919091179055565b6060600080846001600160a01b0316846040516111a79190611a5d565b600060405180830381855af49150503d80600081146111e2576040519150601f19603f3d011682016040523d82523d6000602084013e6111e7565b606091505b50915091506111f78583836112ee565b95945050505050565b3415610b235760405163b398979f60e01b815260040160405180910390fd5b600080807f7fffffffffffffffffffffffffffffff5d576e7357a4501ddfe92f46681b20a084111561125a57506000915060039050826112e4565b604080516000808252602082018084528a905260ff891692820192909252606081018790526080810186905260019060a0016020604051602081039080840390855afa1580156112ae573d6000803e3d6000fd5b5050604051601f1901519150506001600160a01b0381166112da575060009250600191508290506112e4565b9250600091508190505b9450945094915050565b606082611303576112fe8261134a565b61047f565b815115801561131a57506001600160a01b0384163b155b1561134357604051639996b31560e01b81526001600160a01b03851660048201526024016105fa565b508061047f565b80511561135a5780518082602001fd5b604051630a12f52160e11b815260040160405180910390fd5b60006020828403121561138557600080fd5b81356001600160e01b03198116811461047f57600080fd5b6001600160a01b0381168114610bc957600080fd5b60008083601f8401126113c457600080fd5b5081356001600160401b038111156113db57600080fd5b6020830191508360208285010111156113f357600080fd5b9250929050565b60008060008060006080868803121561141257600080fd5b853561141d8161139d565b9450602086013561142d8161139d565b93506040860135925060608601356001600160401b0381111561144f57600080fd5b61145b888289016113b2565b969995985093965092949392505050565b60008060006060848603121561148157600080fd5b83356001600160401b0381111561149757600080fd5b840161012081870312156114aa57600080fd5b95602085013595506040909401359392505050565b634e487b7160e01b600052604160045260246000fd5b604051608081016001600160401b03811182821017156114f7576114f76114bf565b60405290565b600082601f83011261150e57600080fd5b81356001600160401b0380821115611528576115286114bf565b604051601f8301601f19908116603f01168101908282118183101715611550576115506114bf565b8160405283815286602085880101111561156957600080fd5b836020870160208301376000602085830101528094505050505092915050565b60006020828403121561159b57600080fd5b81356001600160401b03808211156115b257600080fd5b90830190608082860312156115c657600080fd5b6115ce6114d5565b8235828111156115dd57600080fd5b6115e9878286016114fd565b8252506020830135828111156115fe57600080fd5b61160a878286016114fd565b60208301525060408301358281111561162257600080fd5b61162e878286016114fd565b60408301525060608301358281111561164657600080fd5b611652878286016114fd565b60608301525095945050505050565b60008083601f84011261167357600080fd5b5081356001600160401b0381111561168a57600080fd5b6020830191508360208260051b85010111156113f357600080fd5b600080600080600080606087890312156116be57600080fd5b86356001600160401b03808211156116d557600080fd5b6116e18a838b01611661565b909850965060208901359150808211156116fa57600080fd5b6117068a838b01611661565b9096509450604089013591508082111561171f57600080fd5b5061172c89828a01611661565b979a9699509497509295939492505050565b6000806040838503121561175157600080fd5b823561175c8161139d565b9150602083013561176c8161139d565b809150509250929050565b6000806040838503121561178a57600080fd5b82356117958161139d565b946020939093013593505050565b600080604083850312156117b657600080fd5b82356117c18161139d565b915060208301356001600160401b038111156117dc57600080fd5b6117e8858286016114fd565b9150509250929050565b60005b8381101561180d5781810151838201526020016117f5565b50506000910152565b60208152600082518060208401526118358160408501602087016117f2565b601f01601f19169190910160400192915050565b6000806000806060858703121561185f57600080fd5b843561186a8161139d565b93506020850135925060408501356001600160401b0381111561188c57600080fd5b611898878288016113b2565b95989497509550505050565b60008060008060008060008060a0898b0312156118c057600080fd5b88356118cb8161139d565b975060208901356118db8161139d565b965060408901356001600160401b03808211156118f757600080fd5b6119038c838d01611661565b909850965060608b013591508082111561191c57600080fd5b6119288c838d01611661565b909650945060808b013591508082111561194157600080fd5b5061194e8b828c016113b2565b999c989b5096995094979396929594505050565b60008060008060008060a0878903121561197b57600080fd5b86356119868161139d565b955060208701356119968161139d565b9450604087013593506060870135925060808701356001600160401b038111156119bf57600080fd5b61172c89828a016113b2565b634e487b7160e01b600052603260045260246000fd5b6000602082840312156119f357600080fd5b813561047f8161139d565b6000808335601e19843603018112611a1557600080fd5b8301803591506001600160401b03821115611a2f57600080fd5b6020019150368190038213156113f357600080fd5b600060208284031215611a5657600080fd5b5051919050565b60008251611a6f8184602087016117f2565b9190910192915050565b634e487b7160e01b600052602160045260246000fdfe360894a13ba1a3210667c828492db98dca3e2076cc3735a920a3ca505d382bbca264697066735822122066798291fd6e616072d786db3fafc534a27e4e0692da9a36a5be23d9f85fd56464736f6c63430008170033",
  "linkReferences": {},
  "deployedLinkReferences": {}
}