{
  "_format": "hh-sol-artifact-1",
  "contractName": "TestTimeRangeAccountFactory",
  "sourceName": "contracts/tests/TestTimeRangeAccount.sol",
  "abi": [
    {
      "inputs": [
        {
          "internalType": "string",
          "name": "",
          "type": "string"
        }
      ],
      "name": "create",
      "outputs": [
        {
          "internalType": "address",
          "name": "",
          "type": "address"
        }
      ],
      "stateMutability": "nonpayable",
      "type": "function"
    }
  ],
  "bytecode": "0x608060405234801561001057600080fd5b506102ef806100206000396000f3fe608060405234801561001057600080fd5b506004361061002b5760003560e01c8063b6a46b3b14610030575b600080fd5b61004361003e3660046100bb565b61005f565b6040516001600160a01b03909116815260200160405180910390f35b60008060001b60405161007190610098565b8190604051809103906000f5905080158015610091573d6000803e3d6000fd5b5092915050565b61014d8061016d83390190565b634e487b7160e01b600052604160045260246000fd5b6000602082840312156100cd57600080fd5b813567ffffffffffffffff808211156100e557600080fd5b818401915084601f8301126100f957600080fd5b81358181111561010b5761010b6100a5565b604051601f8201601f19908116603f01168101908382118183101715610133576101336100a5565b8160405282815287602084870101111561014c57600080fd5b82602086016020830137600092810160200192909252509594505050505056fe608060405234801561001057600080fd5b5061012d806100206000396000f3fe6080604052348015600f57600080fd5b506004361060285760003560e01c806319822f7c14602d575b600080fd5b603c603836600460a6565b604e565b60405190815260200160405180910390f35b600060a084013560c085013560801c60668382846070565b9695505050505050565b600060d08265ffffffffffff16901b60a08465ffffffffffff16901b8560965760006099565b60015b60ff161717949350505050565b60008060006060848603121560ba57600080fd5b833567ffffffffffffffff81111560d057600080fd5b8401610120818703121560e257600080fd5b9560208501359550604090940135939250505056fea2646970667358221220a5ad9c298e282412a43891da4a406401504c1a1c92cc9094cbac5dbb3474cb7b64736f6c63430008170033a2646970667358221220566ef3451054252761aa31672bad9dffd751629ab7832c0c5e79357ed7ec0b7564736f6c63430008170033",
  "linkReferences": {},
  "deployedLinkReferences": {}
}