{
  "_format": "hh-sol-artifact-1",
  "contractName": "Dummy",
  "sourceName": "contracts/tests/TestRulesAccount.sol",
  "abi": [
    {
      "inputs": [],
      "name": "value",
      "outputs": [
        {
          "internalType": "uint256",
          "name": "",
          "type": "uint256"
        }
      ],
      "stateMutability": "view",
      "type": "function"
    }
  ],
  "bytecode": "0x60806040526001600055348015601457600080fd5b50607d806100236000396000f3fe6080604052348015600f57600080fd5b506004361060285760003560e01c80633fa4f24514602d575b600080fd5b603560005481565b60405190815260200160405180910390f3fea2646970667358221220b727b6351a804920a0e9f0d2f952a5444926ec0c7453e32dc67544f99bb111ae64736f6c63430008170033",
  "linkReferences": {},
  "deployedLinkReferences": {}
}